:020000040000FA
:1000000001280730990083169F010830850083126C
:1000100085012F200139031D2C285008F33C031DB6
:100020002C285108A03C031D1828013085062C28D7
:100030005108A13C031D1F28023085062C285108B9
:10004000A23C031D2628043085062C285108A33C19
:10005000031D2C2810308506D001D101092820303D
:10006000C200C7010C108E018F01851935281014AC
:10007000851D382810100C1856280E08C5000F08CA
:10008000C6004508E53C4608031C013E013C031C34
:1000900056284508703C4608031C013E013C0318E5
:1000A0005628C70A47080A3C031C5928C20B3228A5
:1000B0000134851959280C108E018F011014851DEB
:1000C0005F2810100E08C5000F08C6000C18013478
:1000D0004508103C4608031C013E083C031C5928F7
:1000E0004508DC3C4608031C013E053C0318592822
:1000F0008516851979287C3097205030840004308B
:10010000C2000830C30080010310800D85198B28C0
:10011000851D88288E28001485198C287C3097200E
:10012000C30B8528840AC20B812885120034C000C5
:0C013000C00300000000C00B992808006C
:04013C000034003457
:02400E00D43F9D
:00000001FF
