:020000040000FA
:020000002A28AC
:040002000034003492
:080008000B1C0900F330D000CD
:100010005130D2005A30D300C8307120C83071201E
:1000200085181428A030D10085191828A230D100D5
:10003000051A1C28A330D100851A2028A430D1002D
:1000400005192428A130D100D11B3920D101050880
:100050000B1009003E30650083169F013F3096006B
:100060000830810083128B150B108B17051063006D
:1000700037282030C2000514A63071200510A630A4
:100080007120C20B3B28A6307120A6307120A6300B
:1000900071200514A63071200510A6307120503053
:1000A00084000430C2000830C300801F5E2805149D
:1000B000A63071200510A630712064280510A630E6
:1000C00071200514A6307120800DC30B5528840AB9
:1000D000C20B53280514A63071200510A6307120DC
:1000E0000800C000C00300000000C00B7328080017
:02400E00D43F9D
:00000001FF
